{
  "contractName": "RRHH",
  "abi": [
    {
      "constant": true,
      "inputs": [],
      "name": "texto",
      "outputs": [
        {
          "name": "",
          "type": "string"
        }
      ],
      "payable": false,
      "stateMutability": "view",
      "type": "function"
    },
    {
      "constant": true,
      "inputs": [],
      "name": "prueba",
      "outputs": [
        {
          "name": "",
          "type": "uint256"
        }
      ],
      "payable": false,
      "stateMutability": "view",
      "type": "function"
    },
    {
      "constant": true,
      "inputs": [
        {
          "name": "",
          "type": "uint256"
        }
      ],
      "name": "courses",
      "outputs": [
        {
          "name": "provider",
          "type": "address"
        },
        {
          "name": "IdCourse",
          "type": "string"
        },
        {
          "name": "description",
          "type": "string"
        },
        {
          "name": "validated",
          "type": "bool"
        }
      ],
      "payable": false,
      "stateMutability": "view",
      "type": "function"
    },
    {
      "constant": true,
      "inputs": [],
      "name": "ETHXBT",
      "outputs": [
        {
          "name": "",
          "type": "string"
        }
      ],
      "payable": false,
      "stateMutability": "view",
      "type": "function"
    },
    {
      "inputs": [],
      "payable": false,
      "stateMutability": "nonpayable",
      "type": "constructor"
    },
    {
      "anonymous": false,
      "inputs": [
        {
          "indexed": false,
          "name": "nextStep",
          "type": "string"
        }
      ],
      "name": "LogConstructorInitiated",
      "type": "event"
    },
    {
      "anonymous": false,
      "inputs": [
        {
          "indexed": false,
          "name": "price",
          "type": "string"
        }
      ],
      "name": "LogPriceUpdated",
      "type": "event"
    },
    {
      "anonymous": false,
      "inputs": [
        {
          "indexed": false,
          "name": "description",
          "type": "string"
        }
      ],
      "name": "LogNewOraclizeQuery",
      "type": "event"
    },
    {
      "constant": false,
      "inputs": [],
      "name": "getPrueba",
      "outputs": [
        {
          "name": "",
          "type": "uint256"
        }
      ],
      "payable": false,
      "stateMutability": "nonpayable",
      "type": "function"
    },
    {
      "constant": false,
      "inputs": [
        {
          "name": "myid",
          "type": "bytes32"
        },
        {
          "name": "result",
          "type": "string"
        }
      ],
      "name": "__callback",
      "outputs": [],
      "payable": false,
      "stateMutability": "nonpayable",
      "type": "function"
    },
    {
      "constant": false,
      "inputs": [
        {
          "name": "myid",
          "type": "bytes32"
        },
        {
          "name": "result",
          "type": "string"
        },
        {
          "name": "proof",
          "type": "bytes"
        }
      ],
      "name": "__callback",
      "outputs": [],
      "payable": false,
      "stateMutability": "nonpayable",
      "type": "function"
    },
    {
      "constant": false,
      "inputs": [],
      "name": "getratio",
      "outputs": [],
      "payable": true,
      "stateMutability": "payable",
      "type": "function"
    },
    {
      "constant": true,
      "inputs": [],
      "name": "getValor",
      "outputs": [
        {
          "name": "",
          "type": "string"
        }
      ],
      "payable": false,
      "stateMutability": "view",
      "type": "function"
    },
    {
      "constant": false,
      "inputs": [],
      "name": "add",
      "outputs": [],
      "payable": false,
      "stateMutability": "nonpayable",
      "type": "function"
    },
    {
      "constant": false,
      "inputs": [],
      "name": "minus",
      "outputs": [],
      "payable": false,
      "stateMutability": "nonpayable",
      "type": "function"
    },
    {
      "constant": true,
      "inputs": [],
      "name": "getOwner",
      "outputs": [
        {
          "name": "",
          "type": "address"
        }
      ],
      "payable": false,
      "stateMutability": "view",
      "type": "function"
    },
    {
      "constant": false,
      "inputs": [
        {
          "name": "_idCourse",
          "type": "string"
        },
        {
          "name": "_description",
          "type": "string"
        }
      ],
      "name": "addCourse",
      "outputs": [],
      "payable": false,
      "stateMutability": "nonpayable",
      "type": "function"
    },
    {
      "constant": true,
      "inputs": [
        {
          "name": "i",
          "type": "uint256"
        }
      ],
      "name": "lookForMyCourses",
      "outputs": [
        {
          "name": "",
          "type": "string"
        },
        {
          "name": "",
          "type": "bool"
        },
        {
          "name": "",
          "type": "address"
        },
        {
          "name": "",
          "type": "string"
        }
      ],
      "payable": false,
      "stateMutability": "view",
      "type": "function"
    },
    {
      "constant": true,
      "inputs": [],
      "name": "getNumberOfCourses",
      "outputs": [
        {
          "name": "",
          "type": "uint256"
        }
      ],
      "payable": false,
      "stateMutability": "view",
      "type": "function"
    }
  ],
  "bytecode": "0x608060405234801561001057600080fd5b5033600860006101000a81548173ffffffffffffffffffffffffffffffffffffffff021916908373ffffffffffffffffffffffffffffffffffffffff160217905550600c60058190555073490d46e5ef3dc3d8557660d8129932910053cf4b6000806101000a81548173ffffffffffffffffffffffffffffffffffffffff021916908373ffffffffffffffffffffffffffffffffffffffff1602179055506124ee806100bd6000396000f3006080604052600436106100db576000357c0100000000000000000000000000000000000000000000000000000000900463ffffffff1680630fa5b22e146100e057806313422ff91461017057806314434fa5146102c057806327dc297e146102d75780632b75565d1461034e57806338bbfa50146103fd5780633ef42c97146104ba5780634f2be91f1461054a5780637cb5946d14610561578063893d20e81461058c57806390ebed43146105e357806396f979d21461060e578063b77644751461075e578063cc809671146107ee578063d32ade90146107f8575b600080fd5b3480156100ec57600080fd5b506100f5610823565b6040518080602001828103825283818151815260200191508051906020019080838360005b8381101561013557808201518184015260208101905061011a565b50505050905090810190601f1680156101625780820380516001836020036101000a031916815260200191505b509250505060405180910390f35b34801561017c57600080fd5b5061019b600480360381019080803590602001909291905050506108c1565b6040518080602001851515151581526020018473ffffffffffffffffffffffffffffffffffffffff1673ffffffffffffffffffffffffffffffffffffffff16815260200180602001838103835287818151815260200191508051906020019080838360005b8381101561021b578082015181840152602081019050610200565b50505050905090810190601f1680156102485780820380516001836020036101000a031916815260200191505b50838103825284818151815260200191508051906020019080838360005b83811015610281578082015181840152602081019050610266565b50505050905090810190601f1680156102ae5780820380516001836020036101000a031916815260200191505b50965050505050505060405180910390f35b3480156102cc57600080fd5b506102d5610abe565b005b3480156102e357600080fd5b5061034c6004803603810190808035600019169060200190929190803590602001908201803590602001908080601f0160208091040260200160405190810160405280939291908181526020018383808284378201915050505050509192919290505050610acc565b005b34801561035a57600080fd5b506103fb600480360381019080803590602001908201803590602001908080601f0160208091040260200160405190810160405280939291908181526020018383808284378201915050505050509192919290803590602001908201803590602001908080601f0160208091040260200160405190810160405280939291908181526020018383808284378201915050505050509192919290505050610b28565b005b34801561040957600080fd5b506104b86004803603810190808035600019169060200190929190803590602001908201803590602001908080601f0160208091040260200160405190810160405280939291908181526020018383808284378201915050505050509192919290803590602001908201803590602001908080601f0160208091040260200160405190810160405280939291908181526020018383808284378201915050505050509192919290505050610c44565b005b3480156104c657600080fd5b506104cf610c49565b6040518080602001828103825283818151815260200191508051906020019080838360005b8381101561050f5780820151818401526020810190506104f4565b50505050905090810190601f16801561053c5780820380516001836020036101000a031916815260200191505b509250505060405180910390f35b34801561055657600080fd5b5061055f610ceb565b005b34801561056d57600080fd5b50610576610cf9565b6040518082815260200191505060405180910390f35b34801561059857600080fd5b506105a1610cff565b604051808273ffffffffffffffffffffffffffffffffffffffff1673ffffffffffffffffffffffffffffffffffffffff16815260200191505060405180910390f35b3480156105ef57600080fd5b506105f8610d29565b6040518082815260200191505060405180910390f35b34801561061a57600080fd5b5061063960048036038101908080359060200190929190505050610d36565b604051808573ffffffffffffffffffffffffffffffffffffffff1673ffffffffffffffffffffffffffffffffffffffff168152602001806020018060200184151515158152602001838103835286818151815260200191508051906020019080838360005b838110156106b957808201518184015260208101905061069e565b50505050905090810190601f1680156106e65780820380516001836020036101000a031916815260200191505b50838103825285818151815260200191508051906020019080838360005b8381101561071f578082015181840152602081019050610704565b50505050905090810190601f16801561074c5780820380516001836020036101000a031916815260200191505b50965050505050505060405180910390f35b34801561076a57600080fd5b50610773610ed2565b6040518080602001828103825283818151815260200191508051906020019080838360005b838110156107b3578082015181840152602081019050610798565b50505050905090810190601f1680156107e05780820380516001836020036101000a031916815260200191505b509250505060405180910390f35b6107f6610f70565b005b34801561080457600080fd5b5061080d6111cc565b6040518082815260200191505060405180910390f35b60078054600181600116156101000203166002900480601f0160208091040260200160405190810160405280929190818152602001828054600181600116156101000203166002900480156108b95780601f1061088e576101008083540402835291602001916108b9565b820191906000526020600020905b81548152906001019060200180831161089c57829003601f168201915b505050505081565b606060008060606009858154811015156108d757fe5b90600052602060002090600402016002016009868154811015156108f757fe5b906000526020600020906004020160030160009054906101000a900460ff1660098781548110151561092557fe5b906000526020600020906004020160000160009054906101000a900473ffffffffffffffffffffffffffffffffffffffff1660098881548110151561096657fe5b9060005260206000209060040201600101838054600181600116156101000203166002900480601f016020809104026020016040519081016040528092919081815260200182805460018160011615610100020316600290048015610a0c5780601f106109e157610100808354040283529160200191610a0c565b820191906000526020600020905b8154815290600101906020018083116109ef57829003601f168201915b50505050509350808054600181600116156101000203166002900480601f016020809104026020016040519081016040528092919081815260200182805460018160011615610100020316600290048015610aa85780601f10610a7d57610100808354040283529160200191610aa8565b820191906000526020600020905b815481529060010190602001808311610a8b57829003601f168201915b5050505050905093509350935093509193509193565b600160055403600581905550565b610ad46111d6565b73ffffffffffffffffffffffffffffffffffffffff163373ffffffffffffffffffffffffffffffffffffffff16141515610b0d57600080fd5b8060069080519060200190610b2392919061235c565b505050565b610b306123dc565b6080604051908101604052803373ffffffffffffffffffffffffffffffffffffffff1681526020018481526020018381526020016001151581525090506009819080600181540180825580915050906001820390600052602060002090600402016000909192909190915060008201518160000160006101000a81548173ffffffffffffffffffffffffffffffffffffffff021916908373ffffffffffffffffffffffffffffffffffffffff1602179055506020820151816001019080519060200190610bfe92919061241d565b506040820151816002019080519060200190610c1b92919061241d565b5060608201518160030160006101000a81548160ff021916908315150217905550505050505050565b505050565b606060068054600181600116156101000203166002900480601f016020809104026020016040519081016040528092919081815260200182805460018160011615610100020316600290048015610ce15780601f10610cb657610100808354040283529160200191610ce1565b820191906000526020600020905b815481529060010190602001808311610cc457829003601f168201915b5050505050905090565b600160055401600581905550565b60055481565b6000600860009054906101000a900473ffffffffffffffffffffffffffffffffffffffff16905090565b6000600980549050905090565b600a81815481101515610d4557fe5b90600052602060002090600402016000915090508060000160009054906101000a900473ffffffffffffffffffffffffffffffffffffffff1690806001018054600181600116156101000203166002900480601f016020809104026020016040519081016040528092919081815260200182805460018160011615610100020316600290048015610e175780601f10610dec57610100808354040283529160200191610e17565b820191906000526020600020905b815481529060010190602001808311610dfa57829003601f168201915b505050505090806002018054600181600116156101000203166002900480601f016020809104026020016040519081016040528092919081815260200182805460018160011615610100020316600290048015610eb55780601f10610e8a57610100808354040283529160200191610eb5565b820191906000526020600020905b815481529060010190602001808311610e9857829003601f168201915b5050505050908060030160009054906101000a900460ff16905084565b60068054600181600116156101000203166002900480601f016020809104026020016040519081016040528092919081815260200182805460018160011615610100020316600290048015610f685780601f10610f3d57610100808354040283529160200191610f68565b820191906000526020600020905b815481529060010190602001808311610f4b57829003601f168201915b505050505081565b60008033915034905080610fb86040805190810160405280600381526020017f55524c0000000000000000000000000000000000000000000000000000000000815250611534565b1115611077577f621c2856e3b87f81235f8ac8a22bbb40a0142961960710d00b2b6c380902b57e60405180806020018281038252604b8152602001807f4f7261636c697a6520717565727920776173204e4f542073656e742c20706c6581526020017f6173652061646420736f6d652045544820746f20636f76657220666f7220746881526020017f652071756572792066656500000000000000000000000000000000000000000081525060600191505060405180910390a16111c8565b7f621c2856e3b87f81235f8ac8a22bbb40a0142961960710d00b2b6c380902b57e6040518080602001828103825260358152602001807f4f7261636c697a65207175657279207761732073656e742c207374616e64696e81526020017f6720627920666f722074686520616e737765722e2e000000000000000000000081525060400191505060405180910390a16111c66040805190810160405280600381526020017f55524c0000000000000000000000000000000000000000000000000000000000815250608060405190810160405280604c81526020017f6a736f6e2868747470733a2f2f6170692e6b72616b656e2e636f6d2f302f707581526020017f626c69632f5469636b65723f706169723d455448584254292e726573756c742e81526020017f58455448585842542e632e300000000000000000000000000000000000000000815250611904565b505b5050565b6000600554905090565b6000806000809054906101000a900473ffffffffffffffffffffffffffffffffffffffff1673ffffffffffffffffffffffffffffffffffffffff161480611246575060006112446000809054906101000a900473ffffffffffffffffffffffffffffffffffffffff16611ea6565b145b15611257576112556000611eb1565b505b6000809054906101000a900473ffffffffffffffffffffffffffffffffffffffff1673ffffffffffffffffffffffffffffffffffffffff166338cc48316040518163ffffffff167c0100000000000000000000000000000000000000000000000000000000028152600401602060405180830381600087803b1580156112dc57600080fd5b505af11580156112f0573d6000803e3d6000fd5b505050506040513d602081101561130657600080fd5b810190808051906020019092919050505073ffffffffffffffffffffffffffffffffffffffff16600160009054906101000a900473ffffffffffffffffffffffffffffffffffffffff1673ffffffffffffffffffffffffffffffffffffffff1614151561146e576000809054906101000a900473ffffffffffffffffffffffffffffffffffffffff1673ffffffffffffffffffffffffffffffffffffffff166338cc48316040518163ffffffff167c0100000000000000000000000000000000000000000000000000000000028152600401602060405180830381600087803b1580156113f257600080fd5b505af1158015611406573d6000803e3d6000fd5b505050506040513d602081101561141c57600080fd5b8101908080519060200190929190505050600160006101000a81548173ffffffffffffffffffffffffffffffffffffffff021916908373ffffffffffffffffffffffffffffffffffffffff1602179055505b600160009054906101000a900473ffffffffffffffffffffffffffffffffffffffff1673ffffffffffffffffffffffffffffffffffffffff1663c281d19e6040518163ffffffff167c0100000000000000000000000000000000000000000000000000000000028152600401602060405180830381600087803b1580156114f457600080fd5b505af1158015611508573d6000803e3d6000fd5b505050506040513d602081101561151e57600080fd5b8101908080519060200190929190505050905090565b6000806000809054906101000a900473ffffffffffffffffffffffffffffffffffffffff1673ffffffffffffffffffffffffffffffffffffffff1614806115a4575060006115a26000809054906101000a900473ffffffffffffffffffffffffffffffffffffffff16611ea6565b145b156115b5576115b36000611eb1565b505b6000809054906101000a900473ffffffffffffffffffffffffffffffffffffffff1673ffffffffffffffffffffffffffffffffffffffff166338cc48316040518163ffffffff167c0100000000000000000000000000000000000000000000000000000000028152600401602060405180830381600087803b15801561163a57600080fd5b505af115801561164e573d6000803e3d6000fd5b505050506040513d602081101561166457600080fd5b810190808051906020019092919050505073ffffffffffffffffffffffffffffffffffffffff16600160009054906101000a900473ffffffffffffffffffffffffffffffffffffffff1673ffffffffffffffffffffffffffffffffffffffff161415156117cc576000809054906101000a900473ffffffffffffffffffffffffffffffffffffffff1673ffffffffffffffffffffffffffffffffffffffff166338cc48316040518163ffffffff167c0100000000000000000000000000000000000000000000000000000000028152600401602060405180830381600087803b15801561175057600080fd5b505af1158015611764573d6000803e3d6000fd5b505050506040513d602081101561177a57600080fd5b8101908080519060200190929190505050600160006101000a81548173ffffffffffffffffffffffffffffffffffffffff021916908373ffffffffffffffffffffffffffffffffffffffff1602179055505b600160009054906101000a900473ffffffffffffffffffffffffffffffffffffffff1673ffffffffffffffffffffffffffffffffffffffff1663524f3889836040518263ffffffff167c01000000000000000000000000000000000000000000000000000000000281526004018080602001828103825283818151815260200191508051906020019080838360005b8381101561187657808201518184015260208101905061185b565b50505050905090810190601f1680156118a35780820380516001836020036101000a031916815260200191505b5092505050602060405180830381600087803b1580156118c257600080fd5b505af11580156118d6573d6000803e3d6000fd5b505050506040513d60208110156118ec57600080fd5b81019080805190602001909291905050509050919050565b60008060008060009054906101000a900473ffffffffffffffffffffffffffffffffffffffff1673ffffffffffffffffffffffffffffffffffffffff161480611976575060006119746000809054906101000a900473ffffffffffffffffffffffffffffffffffffffff16611ea6565b145b15611987576119856000611eb1565b505b6000809054906101000a900473ffffffffffffffffffffffffffffffffffffffff1673ffffffffffffffffffffffffffffffffffffffff166338cc48316040518163ffffffff167c0100000000000000000000000000000000000000000000000000000000028152600401602060405180830381600087803b158015611a0c57600080fd5b505af1158015611a20573d6000803e3d6000fd5b505050506040513d6020811015611a3657600080fd5b810190808051906020019092919050505073ffffffffffffffffffffffffffffffffffffffff16600160009054906101000a900473ffffffffffffffffffffffffffffffffffffffff1673ffffffffffffffffffffffffffffffffffffffff16141515611b9e576000809054906101000a900473ffffffffffffffffffffffffffffffffffffffff1673ffffffffffffffffffffffffffffffffffffffff166338cc48316040518163ffffffff167c0100000000000000000000000000000000000000000000000000000000028152600401602060405180830381600087803b158015611b2257600080fd5b505af1158015611b36573d6000803e3d6000fd5b505050506040513d6020811015611b4c57600080fd5b8101908080519060200190929190505050600160006101000a81548173ffffffffffffffffffffffffffffffffffffffff021916908373ffffffffffffffffffffffffffffffffffffffff1602179055505b600160009054906101000a900473ffffffffffffffffffffffffffffffffffffffff1673ffffffffffffffffffffffffffffffffffffffff1663524f3889856040518263ffffffff167c01000000000000000000000000000000000000000000000000000000000281526004018080602001828103825283818151815260200191508051906020019080838360005b83811015611c48578082015181840152602081019050611c2d565b50505050905090810190601f168015611c755780820380516001836020036101000a031916815260200191505b5092505050602060405180830381600087803b158015611c9457600080fd5b505af1158015611ca8573d6000803e3d6000fd5b505050506040513d6020811015611cbe57600080fd5b8101908080519060200190929190505050905062030d403a02670de0b6b3a764000001811115611cf45760006001029150611e9f565b600160009054906101000a900473ffffffffffffffffffffffffffffffffffffffff1673ffffffffffffffffffffffffffffffffffffffff1663adf59f9982600087876040518563ffffffff167c0100000000000000000000000000000000000000000000000000000000028152600401808481526020018060200180602001838103835285818151815260200191508051906020019080838360005b83811015611dac578082015181840152602081019050611d91565b50505050905090810190601f168015611dd95780820380516001836020036101000a031916815260200191505b50838103825284818151815260200191508051906020019080838360005b83811015611e12578082015181840152602081019050611df7565b50505050905090810190601f168015611e3f5780820380516001836020036101000a031916815260200191505b50955050505050506020604051808303818588803b158015611e6057600080fd5b505af1158015611e74573d6000803e3d6000fd5b50505050506040513d6020811015611e8b57600080fd5b810190808051906020019092919050505091505b5092915050565b6000813b9050919050565b600080611ed1731d3b2638a7cc9f2cb3d298a3da7a90b67e5506ed611ea6565b1115611f7257731d3b2638a7cc9f2cb3d298a3da7a90b67e5506ed6000806101000a81548173ffffffffffffffffffffffffffffffffffffffff021916908373ffffffffffffffffffffffffffffffffffffffff160217905550611f696040805190810160405280600b81526020017f6574685f6d61696e6e6574000000000000000000000000000000000000000000815250612342565b6001905061233d565b6000611f9173c03a2615d5efaf5f49f60b7bb6583eaec212fdf1611ea6565b11156120325773c03a2615d5efaf5f49f60b7bb6583eaec212fdf16000806101000a81548173ffffffffffffffffffffffffffffffffffffffff021916908373ffffffffffffffffffffffffffffffffffffffff1602179055506120296040805190810160405280600c81526020017f6574685f726f707374656e330000000000000000000000000000000000000000815250612342565b6001905061233d565b600061205173b7a07bcf2ba2f2703b24c0691b5278999c59ac7e611ea6565b11156120f25773b7a07bcf2ba2f2703b24c0691b5278999c59ac7e6000806101000a81548173ffffffffffffffffffffffffffffffffffffffff021916908373ffffffffffffffffffffffffffffffffffffffff1602179055506120e96040805190810160405280600981526020017f6574685f6b6f76616e0000000000000000000000000000000000000000000000815250612342565b6001905061233d565b600061211173146500cfd35b22e4a392fe0adc06de1a1368ed48611ea6565b11156121b25773146500cfd35b22e4a392fe0adc06de1a1368ed486000806101000a81548173ffffffffffffffffffffffffffffffffffffffff021916908373ffffffffffffffffffffffffffffffffffffffff1602179055506121a96040805190810160405280600b81526020017f6574685f72696e6b656279000000000000000000000000000000000000000000815250612342565b6001905061233d565b60006121d1736f485c8bf6fc43ea212e93bbf8ce046c7f1cb475611ea6565b111561223457736f485c8bf6fc43ea212e93bbf8ce046c7f1cb4756000806101000a81548173ffffffffffffffffffffffffffffffffffffffff021916908373ffffffffffffffffffffffffffffffffffffffff1602179055506001905061233d565b60006122537320e12a1f859b3feae5fb2a0a32c18f5a65555bbf611ea6565b11156122b6577320e12a1f859b3feae5fb2a0a32c18f5a65555bbf6000806101000a81548173ffffffffffffffffffffffffffffffffffffffff021916908373ffffffffffffffffffffffffffffffffffffffff1602179055506001905061233d565b60006122d57351efaf4c8b3c9afbd5ab9f4bbc82784ab6ef8faa611ea6565b1115612338577351efaf4c8b3c9afbd5ab9f4bbc82784ab6ef8faa6000806101000a81548173ffffffffffffffffffffffffffffffffffffffff021916908373ffffffffffffffffffffffffffffffffffffffff1602179055506001905061233d565b600090505b919050565b806002908051906020019061235892919061235c565b5050565b828054600181600116156101000203166002900490600052602060002090601f016020900481019282601f1061239d57805160ff19168380011785556123cb565b828001600101855582156123cb579182015b828111156123ca5782518255916020019190600101906123af565b5b5090506123d8919061249d565b5090565b608060405190810160405280600073ffffffffffffffffffffffffffffffffffffffff16815260200160608152602001606081526020016000151581525090565b828054600181600116156101000203166002900490600052602060002090601f016020900481019282601f1061245e57805160ff191683800117855561248c565b8280016001018555821561248c579182015b8281111561248b578251825591602001919060010190612470565b5b509050612499919061249d565b5090565b6124bf91905b808211156124bb5760008160009055506001016124a3565b5090565b905600a165627a7a72305820aefebcfd476180fc17786c94ac716fd01b3051d605686e103d3754e0d2ecbb5c0029",
  "source": "pragma solidity ^0.4.23;\r\nimport \"./Oraclize.sol\";\r\n//import \"./oraclizeAPI.sol\";\r\n\r\ncontract RRHH is usingOraclize {\r\n\r\n    uint public prueba;\r\n    string public ETHXBT; \r\n    string public texto;\r\n    address private onwer;\r\n    struct course\r\n    {\r\n        address provider;\r\n        string IdCourse;\r\n        string description;\r\n        bool validated;\r\n        /*uint date;\r\n        uint expirationDate;\r\n        string contact;\r\n        bool validated;\r\n        address holder;*/\r\n    }\r\n\r\n    course[] AuthoridedCourses;\r\n\r\n    course[] public courses;\r\n    event LogConstructorInitiated(string nextStep);\r\n    event LogPriceUpdated(string price);\r\n    event LogNewOraclizeQuery(string description);\r\n\r\n    constructor() public  {\r\n\r\n        onwer = msg.sender;\r\n        prueba = 12;\r\n        OAR = OraclizeAddrResolverI(0x490D46E5ef3DC3D8557660d8129932910053cf4b);\r\n        \r\n    }\r\n\r\n    function getPrueba() public   returns(uint) {\r\n\r\n        /*courses[0].date = 12;\r\n        return courses[0].date;*/\r\n        \r\n        return prueba;\r\n    }\r\n\r\n    function  __callback (bytes32 myid, string result)  {\r\n        if (msg.sender != oraclize_cbAddress()) revert();\r\n        ETHXBT = result;\r\n    }\r\n\r\n    function getratio() public payable {\r\n\r\n        address pagador = msg.sender;\r\n        uint balance = msg.value;\r\n        if (oraclize_getPrice(\"URL\") > balance) {\r\n            emit LogNewOraclizeQuery(\"Oraclize query was NOT sent, please add some ETH to cover for the query fee\");\r\n        } else {\r\n            emit LogNewOraclizeQuery(\"Oraclize query was sent, standing by for the answer..\");\r\n            oraclize_query(\"URL\", \"json(https://api.kraken.com/0/public/Ticker?pair=ETHXBT).result.XETHXXBT.c.0\");\r\n            }\r\n    }\r\n\r\n    function getValor () public view returns(string) {\r\n\r\n        return ETHXBT;\r\n    }\r\n\r\n    function add() public {\r\n\r\n        prueba = prueba + 1;\r\n    }\r\n\r\n    function minus() public {\r\n\r\n        prueba = prueba - 1;\r\n    }\r\n\r\n    function getOwner() public view returns(address) {\r\n        return onwer;\r\n    }\r\n\r\n    function addCourse(string _idCourse,  string _description) public {\r\n    // int8 _note, uint _expirationDate, string _idCourse) public  {\r\n\r\n        course memory AuxAuthoridedCourse; \r\n        AuxAuthoridedCourse = course(msg.sender,_idCourse,_description,true);\r\n        AuthoridedCourses.push(AuxAuthoridedCourse);\r\n    }\r\n\r\n    function lookForMyCourses(uint i) public view returns(string, bool, address, string){\r\n\r\n\r\n\r\n        /*for(i = 0; i <= courses.length; i++) {\r\n            if (courses[i].provider == msg.sender){\r\n                auxCourses = courses[i];\r\n                break;\r\n            }*/\r\n\r\n            \r\n        \r\n        return (AuthoridedCourses[i].description,AuthoridedCourses[i].validated,AuthoridedCourses[i].provider, AuthoridedCourses[i].IdCourse);\r\n\r\n        \r\n\r\n    }\r\n\r\n    function getNumberOfCourses() public view returns (uint) {\r\n\r\n        return AuthoridedCourses.length;\r\n    }\r\n    \r\n}",
  "sourcePath": "C:\\Victor\\Projects\\solidity\\rrhh\\contracts\\RRHH.sol",
  "compiler": {
    "name": "solc",
    "version": "0.4.24+commit.e67f0147.Emscripten.clang"
  },
  "schemaVersion": "2.0.1",
  "updatedAt": "2018-07-17T20:08:47.376Z"
}